{
  "contractName": "DilBSC",
  "abi": [
    {
      "inputs": [
        {
          "internalType": "string",
          "name": "token_name",
          "type": "string"
        },
        {
          "internalType": "string",
          "name": "short_symbol",
          "type": "string"
        },
        {
          "internalType": "uint8",
          "name": "token_decimals",
          "type": "uint8"
        },
        {
          "internalType": "uint256",
          "name": "token_totalSupply",
          "type": "uint256"
        }
      ],
      "stateMutability": "nonpayable",
      "type": "constructor"
    },
    {
      "anonymous": false,
      "inputs": [
        {
          "indexed": true,
          "internalType": "address",
          "name": "owner",
          "type": "address"
        },
        {
          "indexed": true,
          "internalType": "address",
          "name": "spender",
          "type": "address"
        },
        {
          "indexed": false,
          "internalType": "uint256",
          "name": "value",
          "type": "uint256"
        }
      ],
      "name": "Approval",
      "type": "event"
    },
    {
      "anonymous": false,
      "inputs": [
        {
          "indexed": true,
          "internalType": "address",
          "name": "previousOwner",
          "type": "address"
        },
        {
          "indexed": true,
          "internalType": "address",
          "name": "newOwner",
          "type": "address"
        }
      ],
      "name": "OwnershipTransferred",
      "type": "event"
    },
    {
      "anonymous": false,
      "inputs": [
        {
          "indexed": true,
          "internalType": "address",
          "name": "user",
          "type": "address"
        },
        {
          "indexed": false,
          "internalType": "uint256",
          "name": "amount",
          "type": "uint256"
        },
        {
          "indexed": false,
          "internalType": "uint256",
          "name": "index",
          "type": "uint256"
        },
        {
          "indexed": false,
          "internalType": "uint256",
          "name": "timestamp",
          "type": "uint256"
        }
      ],
      "name": "Staked",
      "type": "event"
    },
    {
      "anonymous": false,
      "inputs": [
        {
          "indexed": true,
          "internalType": "address",
          "name": "from",
          "type": "address"
        },
        {
          "indexed": true,
          "internalType": "address",
          "name": "to",
          "type": "address"
        },
        {
          "indexed": false,
          "internalType": "uint256",
          "name": "value",
          "type": "uint256"
        }
      ],
      "name": "Transfer",
      "type": "event"
    },
    {
      "inputs": [
        {
          "internalType": "address",
          "name": "_staker",
          "type": "address"
        }
      ],
      "name": "hasStake",
      "outputs": [
        {
          "components": [
            {
              "internalType": "uint256",
              "name": "total_amount",
              "type": "uint256"
            },
            {
              "components": [
                {
                  "internalType": "address",
                  "name": "user",
                  "type": "address"
                },
                {
                  "internalType": "uint256",
                  "name": "amount",
                  "type": "uint256"
                },
                {
                  "internalType": "uint256",
                  "name": "since",
                  "type": "uint256"
                },
                {
                  "internalType": "uint256",
                  "name": "claimable",
                  "type": "uint256"
                }
              ],
              "internalType": "struct Stakable.Stake[]",
              "name": "stakes",
              "type": "tuple[]"
            }
          ],
          "internalType": "struct Stakable.StakingSummary",
          "name": "",
          "type": "tuple"
        }
      ],
      "stateMutability": "view",
      "type": "function"
    },
    {
      "inputs": [],
      "name": "owner",
      "outputs": [
        {
          "internalType": "address",
          "name": "",
          "type": "address"
        }
      ],
      "stateMutability": "view",
      "type": "function"
    },
    {
      "inputs": [],
      "name": "renounceOwnership",
      "outputs": [],
      "stateMutability": "nonpayable",
      "type": "function"
    },
    {
      "inputs": [],
      "name": "totalStaked",
      "outputs": [
        {
          "internalType": "uint256",
          "name": "",
          "type": "uint256"
        }
      ],
      "stateMutability": "view",
      "type": "function"
    },
    {
      "inputs": [],
      "name": "totalStakeholders",
      "outputs": [
        {
          "internalType": "uint256",
          "name": "",
          "type": "uint256"
        }
      ],
      "stateMutability": "view",
      "type": "function"
    },
    {
      "inputs": [
        {
          "internalType": "address",
          "name": "newOwner",
          "type": "address"
        }
      ],
      "name": "transferOwnership",
      "outputs": [],
      "stateMutability": "nonpayable",
      "type": "function"
    },
    {
      "inputs": [],
      "name": "decimals",
      "outputs": [
        {
          "internalType": "uint8",
          "name": "",
          "type": "uint8"
        }
      ],
      "stateMutability": "view",
      "type": "function"
    },
    {
      "inputs": [],
      "name": "symbol",
      "outputs": [
        {
          "internalType": "string",
          "name": "",
          "type": "string"
        }
      ],
      "stateMutability": "view",
      "type": "function"
    },
    {
      "inputs": [],
      "name": "name",
      "outputs": [
        {
          "internalType": "string",
          "name": "",
          "type": "string"
        }
      ],
      "stateMutability": "view",
      "type": "function"
    },
    {
      "inputs": [],
      "name": "totalSupply",
      "outputs": [
        {
          "internalType": "uint256",
          "name": "",
          "type": "uint256"
        }
      ],
      "stateMutability": "view",
      "type": "function"
    },
    {
      "inputs": [
        {
          "internalType": "address",
          "name": "account",
          "type": "address"
        }
      ],
      "name": "balanceOf",
      "outputs": [
        {
          "internalType": "uint256",
          "name": "",
          "type": "uint256"
        }
      ],
      "stateMutability": "view",
      "type": "function"
    },
    {
      "inputs": [
        {
          "internalType": "address",
          "name": "account",
          "type": "address"
        },
        {
          "internalType": "uint256",
          "name": "amount",
          "type": "uint256"
        }
      ],
      "name": "mint",
      "outputs": [
        {
          "internalType": "bool",
          "name": "",
          "type": "bool"
        }
      ],
      "stateMutability": "nonpayable",
      "type": "function"
    },
    {
      "inputs": [
        {
          "internalType": "address",
          "name": "account",
          "type": "address"
        },
        {
          "internalType": "uint256",
          "name": "amount",
          "type": "uint256"
        }
      ],
      "name": "burn",
      "outputs": [
        {
          "internalType": "bool",
          "name": "",
          "type": "bool"
        }
      ],
      "stateMutability": "nonpayable",
      "type": "function"
    },
    {
      "inputs": [
        {
          "internalType": "address",
          "name": "recipient",
          "type": "address"
        },
        {
          "internalType": "uint256",
          "name": "amount",
          "type": "uint256"
        }
      ],
      "name": "transfer",
      "outputs": [
        {
          "internalType": "bool",
          "name": "",
          "type": "bool"
        }
      ],
      "stateMutability": "nonpayable",
      "type": "function"
    },
    {
      "inputs": [],
      "name": "getOwner",
      "outputs": [
        {
          "internalType": "address",
          "name": "",
          "type": "address"
        }
      ],
      "stateMutability": "view",
      "type": "function"
    },
    {
      "inputs": [
        {
          "internalType": "address",
          "name": "owner",
          "type": "address"
        },
        {
          "internalType": "address",
          "name": "spender",
          "type": "address"
        }
      ],
      "name": "allowance",
      "outputs": [
        {
          "internalType": "uint256",
          "name": "",
          "type": "uint256"
        }
      ],
      "stateMutability": "view",
      "type": "function"
    },
    {
      "inputs": [
        {
          "internalType": "address",
          "name": "spender",
          "type": "address"
        },
        {
          "internalType": "uint256",
          "name": "amount",
          "type": "uint256"
        }
      ],
      "name": "approve",
      "outputs": [
        {
          "internalType": "bool",
          "name": "",
          "type": "bool"
        }
      ],
      "stateMutability": "nonpayable",
      "type": "function"
    },
    {
      "inputs": [
        {
          "internalType": "address",
          "name": "spender",
          "type": "address"
        },
        {
          "internalType": "address",
          "name": "recipient",
          "type": "address"
        },
        {
          "internalType": "uint256",
          "name": "amount",
          "type": "uint256"
        }
      ],
      "name": "transferFrom",
      "outputs": [
        {
          "internalType": "bool",
          "name": "",
          "type": "bool"
        }
      ],
      "stateMutability": "nonpayable",
      "type": "function"
    },
    {
      "inputs": [
        {
          "internalType": "address",
          "name": "spender",
          "type": "address"
        },
        {
          "internalType": "uint256",
          "name": "amount",
          "type": "uint256"
        }
      ],
      "name": "increaseAllowance",
      "outputs": [
        {
          "internalType": "bool",
          "name": "",
          "type": "bool"
        }
      ],
      "stateMutability": "nonpayable",
      "type": "function"
    },
    {
      "inputs": [
        {
          "internalType": "address",
          "name": "spender",
          "type": "address"
        },
        {
          "internalType": "uint256",
          "name": "amount",
          "type": "uint256"
        }
      ],
      "name": "decreaseAllowance",
      "outputs": [
        {
          "internalType": "bool",
          "name": "",
          "type": "bool"
        }
      ],
      "stateMutability": "nonpayable",
      "type": "function"
    },
    {
      "inputs": [
        {
          "internalType": "uint256",
          "name": "_amount",
          "type": "uint256"
        }
      ],
      "name": "stake",
      "outputs": [],
      "stateMutability": "nonpayable",
      "type": "function"
    },
    {
      "inputs": [
        {
          "internalType": "uint256",
          "name": "amount",
          "type": "uint256"
        },
        {
          "internalType": "uint256",
          "name": "stake_index",
          "type": "uint256"
        }
      ],
      "name": "withdrawStake",
      "outputs": [],
      "stateMutability": "nonpayable",
      "type": "function"
    }
  ],
  "bytecode": "0x60806040526103e86001553480156200001757600080fd5b50604051620037113803806200371183398181016040528101906200003d919062000374565b336000806101000a81548173ffffffffffffffffffffffffffffffffffffffff021916908373ffffffffffffffffffffffffffffffffffffffff16021790555060008054906101000a900473ffffffffffffffffffffffffffffffffffffffff1673ffffffffffffffffffffffffffffffffffffffff16600073ffffffffffffffffffffffffffffffffffffffff167f8be0079c531659141344cd1fd0a4f28419497f9722a3daafe3b4186f6b6457e060405160405180910390a360026001816001815401808255809150500390600052602060002090505083600790805190602001906200012e92919062000224565b5082600690805190602001906200014792919062000224565b5081600560006101000a81548160ff021916908360ff16021790555080600481905550600454600860003373ffffffffffffffffffffffffffffffffffffffff1673ffffffffffffffffffffffffffffffffffffffff168152602001908152602001600020819055503373ffffffffffffffffffffffffffffffffffffffff16600073ffffffffffffffffffffffffffffffffffffffff167fddf252ad1be2c89b69c2b068fc378daa952ba7f163c4a11628f55a4df523b3ef60045460405162000212919062000423565b60405180910390a350505050620005fb565b8280546200023290620004ec565b90600052602060002090601f016020900481019282620002565760008555620002a2565b82601f106200027157805160ff1916838001178555620002a2565b82800160010185558215620002a2579182015b82811115620002a157825182559160200191906001019062000284565b5b509050620002b19190620002b5565b5090565b5b80821115620002d0576000816000905550600101620002b6565b5090565b6000620002eb620002e58462000469565b62000440565b9050828152602081018484840111156200030457600080fd5b62000311848285620004b6565b509392505050565b600082601f8301126200032b57600080fd5b81516200033d848260208601620002d4565b91505092915050565b6000815190506200035781620005c7565b92915050565b6000815190506200036e81620005e1565b92915050565b600080600080608085870312156200038b57600080fd5b600085015167ffffffffffffffff811115620003a657600080fd5b620003b48782880162000319565b945050602085015167ffffffffffffffff811115620003d257600080fd5b620003e08782880162000319565b9350506040620003f3878288016200035d565b9250506060620004068782880162000346565b91505092959194509250565b6200041d816200049f565b82525050565b60006020820190506200043a600083018462000412565b92915050565b60006200044c6200045f565b90506200045a828262000522565b919050565b6000604051905090565b600067ffffffffffffffff82111562000487576200048662000587565b5b6200049282620005b6565b9050602081019050919050565b6000819050919050565b600060ff82169050919050565b60005b83811015620004d6578082015181840152602081019050620004b9565b83811115620004e6576000848401525b50505050565b600060028204905060018216806200050557607f821691505b602082108114156200051c576200051b62000558565b5b50919050565b6200052d82620005b6565b810181811067ffffffffffffffff821117156200054f576200054e62000587565b5b80604052505050565b7f4e487b7100000000000000000000000000000000000000000000000000000000600052602260045260246000fd5b7f4e487b7100000000000000000000000000000000000000000000000000000000600052604160045260246000fd5b6000601f19601f8301169050919050565b620005d2816200049f565b8114620005de57600080fd5b50565b620005ec81620004a9565b8114620005f857600080fd5b50565b613106806200060b6000396000f3fe608060405234801561001057600080fd5b50600436106101425760003560e01c8063893d20e8116100b8578063a694fc3a1161007c578063a694fc3a14610391578063a9059cbb146103ad578063dd62ed3e146103dd578063e73e14bf1461040d578063f1fdf4691461043d578063f2fde38b1461045957610142565b8063893d20e8146102d75780638da5cb5b146102f557806395d89b41146103135780639dc29fac14610331578063a457c2d71461036157610142565b8063395093511161010a578063395093511461020157806340c10f19146102315780634f49a78a1461026157806370a082311461027f578063715018a6146102af578063817b1cd2146102b957610142565b806306fdde0314610147578063095ea7b31461016557806318160ddd1461019557806323b872dd146101b3578063313ce567146101e3575b600080fd5b61014f610475565b60405161015c9190612769565b60405180910390f35b61017f600480360381019061017a919061230d565b610507565b60405161018c919061274e565b60405180910390f35b61019d61051e565b6040516101aa919061296d565b60405180910390f35b6101cd60048036038101906101c891906122be565b610528565b6040516101da919061274e565b60405180910390f35b6101eb610691565b6040516101f891906129bf565b60405180910390f35b61021b6004803603810190610216919061230d565b6106a8565b604051610228919061274e565b60405180910390f35b61024b6004803603810190610246919061230d565b610746565b604051610258919061274e565b60405180910390f35b6102696107ea565b604051610276919061296d565b60405180910390f35b61029960048036038101906102949190612259565b6107f7565b6040516102a6919061296d565b60405180910390f35b6102b7610840565b005b6102c161098c565b6040516102ce919061296d565b60405180910390f35b6102df610acb565b6040516102ec9190612733565b60405180910390f35b6102fd610ada565b60405161030a9190612733565b60405180910390f35b61031b610b03565b6040516103289190612769565b60405180910390f35b61034b6004803603810190610346919061230d565b610b95565b604051610358919061274e565b60405180910390f35b61037b6004803603810190610376919061230d565b610c39565b604051610388919061274e565b60405180910390f35b6103ab60048036038101906103a69190612349565b610cd7565b005b6103c760048036038101906103c2919061230d565b610d6e565b6040516103d4919061274e565b60405180910390f35b6103f760048036038101906103f29190612282565b610d85565b604051610404919061296d565b60405180910390f35b61042760048036038101906104229190612259565b610e0c565b604051610434919061294b565b60405180910390f35b61045760048036038101906104529190612372565b6110b1565b005b610473600480360381019061046e9190612259565b6110ce565b005b60606007805461048490612bcc565b80601f01602080910402602001604051908101604052809291908181526020018280546104b090612bcc565b80156104fd5780601f106104d2576101008083540402835291602001916104fd565b820191906000526020600020905b8154815290600101906020018083116104e057829003601f168201915b5050505050905090565b6000610514338484611168565b6001905092915050565b6000600454905090565b600081600960008673ffffffffffffffffffffffffffffffffffffffff1673ffffffffffffffffffffffffffffffffffffffff16815260200190815260200160002060003373ffffffffffffffffffffffffffffffffffffffff1673ffffffffffffffffffffffffffffffffffffffff1681526020019081526020016000205410156105e9576040517f08c379a00000000000000000000000000000000000000000000000000000000081526004016105e0906127ab565b60405180910390fd5b6105f4848484611333565b610686843384600960008973ffffffffffffffffffffffffffffffffffffffff1673ffffffffffffffffffffffffffffffffffffffff16815260200190815260200160002060003373ffffffffffffffffffffffffffffffffffffffff1673ffffffffffffffffffffffffffffffffffffffff168152602001908152602001600020546106819190612b10565b611168565b600190509392505050565b6000600560009054906101000a900460ff16905090565b600061073c338484600960003373ffffffffffffffffffffffffffffffffffffffff1673ffffffffffffffffffffffffffffffffffffffff16815260200190815260200160002060008873ffffffffffffffffffffffffffffffffffffffff1673ffffffffffffffffffffffffffffffffffffffff168152602001908152602001600020546107379190612a2f565b611168565b6001905092915050565b60003373ffffffffffffffffffffffffffffffffffffffff1660008054906101000a900473ffffffffffffffffffffffffffffffffffffffff1673ffffffffffffffffffffffffffffffffffffffff16146107d6576040517f08c379a00000000000000000000000000000000000000000000000000000000081526004016107cd9061278b565b60405180910390fd5b6107e0838361161b565b6001905092915050565b6000600280549050905090565b6000600860008373ffffffffffffffffffffffffffffffffffffffff1673ffffffffffffffffffffffffffffffffffffffff168152602001908152602001600020549050919050565b3373ffffffffffffffffffffffffffffffffffffffff1660008054906101000a900473ffffffffffffffffffffffffffffffffffffffff1673ffffffffffffffffffffffffffffffffffffffff16146108ce576040517f08c379a00000000000000000000000000000000000000000000000000000000081526004016108c59061278b565b60405180910390fd5b600073ffffffffffffffffffffffffffffffffffffffff1660008054906101000a900473ffffffffffffffffffffffffffffffffffffffff1673ffffffffffffffffffffffffffffffffffffffff167f8be0079c531659141344cd1fd0a4f28419497f9722a3daafe3b4186f6b6457e060405160405180910390a360008060006101000a81548173ffffffffffffffffffffffffffffffffffffffff021916908373ffffffffffffffffffffffffffffffffffffffff160217905550565b60008060005b600280549050811015610ac35760005b600282815481106109dc577f4e487b7100000000000000000000000000000000000000000000000000000000600052603260045260246000fd5b906000526020600020906002020160010180549050811015610aae5760028281548110610a32577f4e487b7100000000000000000000000000000000000000000000000000000000600052603260045260246000fd5b90600052602060002090600202016001018181548110610a7b577f4e487b7100000000000000000000000000000000000000000000000000000000600052603260045260246000fd5b90600052602060002090600402016001015483610a989190612a2f565b9250600181610aa79190612a2f565b90506109a2565b50600181610abc9190612a2f565b9050610992565b508091505090565b6000610ad5610ada565b905090565b60008060009054906101000a900473ffffffffffffffffffffffffffffffffffffffff16905090565b606060068054610b1290612bcc565b80601f0160208091040260200160405190810160405280929190818152602001828054610b3e90612bcc565b8015610b8b5780601f10610b6057610100808354040283529160200191610b8b565b820191906000526020600020905b815481529060010190602001808311610b6e57829003601f168201915b5050505050905090565b60003373ffffffffffffffffffffffffffffffffffffffff1660008054906101000a900473ffffffffffffffffffffffffffffffffffffffff1673ffffffffffffffffffffffffffffffffffffffff1614610c25576040517f08c379a0000000000000000000000000000000000000000000000000000000008152600401610c1c9061278b565b60405180910390fd5b610c2f8383611797565b6001905092915050565b6000610ccd338484600960003373ffffffffffffffffffffffffffffffffffffffff1673ffffffffffffffffffffffffffffffffffffffff16815260200190815260200160002060008873ffffffffffffffffffffffffffffffffffffffff1673ffffffffffffffffffffffffffffffffffffffff16815260200190815260200160002054610cc89190612b10565b611168565b6001905092915050565b600860003373ffffffffffffffffffffffffffffffffffffffff1673ffffffffffffffffffffffffffffffffffffffff168152602001908152602001600020548110610d58576040517f08c379a0000000000000000000000000000000000000000000000000000000008152600401610d4f9061280b565b60405180910390fd5b610d6181611995565b610d6b3382611797565b50565b6000610d7b338484611333565b6001905092915050565b6000600960008473ffffffffffffffffffffffffffffffffffffffff1673ffffffffffffffffffffffffffffffffffffffff16815260200190815260200160002060008373ffffffffffffffffffffffffffffffffffffffff1673ffffffffffffffffffffffffffffffffffffffff16815260200190815260200160002054905092915050565b610e14612215565b6000806040518060400160405280600081526020016002600360008873ffffffffffffffffffffffffffffffffffffffff1673ffffffffffffffffffffffffffffffffffffffff1681526020019081526020016000205481548110610ea2577f4e487b7100000000000000000000000000000000000000000000000000000000600052603260045260246000fd5b9060005260206000209060020201600101805480602002602001604051908101604052809291908181526020016000905b82821015610f7957838290600052602060002090600402016040518060800160405290816000820160009054906101000a900473ffffffffffffffffffffffffffffffffffffffff1673ffffffffffffffffffffffffffffffffffffffff1673ffffffffffffffffffffffffffffffffffffffff168152602001600182015481526020016002820154815260200160038201548152505081526020019060010190610ed3565b50505050815250905060005b81602001515181101561109c576000610fe183602001518381518110610fd4577f4e487b7100000000000000000000000000000000000000000000000000000000600052603260045260246000fd5b6020026020010151611ba0565b90508083602001518381518110611021577f4e487b7100000000000000000000000000000000000000000000000000000000600052603260045260246000fd5b602002602001015160600181815250508260200151828151811061106e577f4e487b7100000000000000000000000000000000000000000000000000000000600052603260045260246000fd5b602002602001015160200151846110859190612a2f565b9350506001816110959190612a2f565b9050610f85565b50818160000181815250508092505050919050565b60006110bd8383611be2565b90506110c9338261161b565b505050565b3373ffffffffffffffffffffffffffffffffffffffff1660008054906101000a900473ffffffffffffffffffffffffffffffffffffffff1673ffffffffffffffffffffffffffffffffffffffff161461115c576040517f08c379a00000000000000000000000000000000000000000000000000000000081526004016111539061278b565b60405180910390fd5b61116581611fdb565b50565b600073ffffffffffffffffffffffffffffffffffffffff168373ffffffffffffffffffffffffffffffffffffffff1614156111d8576040517f08c379a00000000000000000000000000000000000000000000000000000000081526004016111cf906127cb565b60405180910390fd5b600073ffffffffffffffffffffffffffffffffffffffff168273ffffffffffffffffffffffffffffffffffffffff161415611248576040517f08c379a000000000000000000000000000000000000000000000000000000000815260040161123f9061290b565b60405180910390fd5b80600960008573ffffffffffffffffffffffffffffffffffffffff1673ffffffffffffffffffffffffffffffffffffffff16815260200190815260200160002060008473ffffffffffffffffffffffffffffffffffffffff1673ffffffffffffffffffffffffffffffffffffffff168152602001908152602001600020819055508173ffffffffffffffffffffffffffffffffffffffff168373ffffffffffffffffffffffffffffffffffffffff167f8c5be1e5ebec7d5bd14f71427d1e84f3dd0314c0f7b2291e5b200ac8c7c3b92583604051611326919061296d565b60405180910390a3505050565b600073ffffffffffffffffffffffffffffffffffffffff168373ffffffffffffffffffffffffffffffffffffffff1614156113a3576040517f08c379a000000000000000000000000000000000000000000000000000000000815260040161139a9061282b565b60405180910390fd5b600073ffffffffffffffffffffffffffffffffffffffff168273ffffffffffffffffffffffffffffffffffffffff161415611413576040517f08c379a000000000000000000000000000000000000000000000000000000000815260040161140a906128eb565b60405180910390fd5b80600860008573ffffffffffffffffffffffffffffffffffffffff1673ffffffffffffffffffffffffffffffffffffffff168152602001908152602001600020541015611495576040517f08c379a000000000000000000000000000000000000000000000000000000000815260040161148c9061286b565b60405180910390fd5b80600860008573ffffffffffffffffffffffffffffffffffffffff1673ffffffffffffffffffffffffffffffffffffffff168152602001908152602001600020546114e09190612b10565b600860008573ffffffffffffffffffffffffffffffffffffffff1673ffffffffffffffffffffffffffffffffffffffff1681526020019081526020016000208190555080600860008473ffffffffffffffffffffffffffffffffffffffff1673ffffffffffffffffffffffffffffffffffffffff1681526020019081526020016000205461156e9190612a2f565b600860008473ffffffffffffffffffffffffffffffffffffffff1673ffffffffffffffffffffffffffffffffffffffff168152602001908152602001600020819055508173ffffffffffffffffffffffffffffffffffffffff168373ffffffffffffffffffffffffffffffffffffffff167fddf252ad1be2c89b69c2b068fc378daa952ba7f163c4a11628f55a4df523b3ef8360405161160e919061296d565b60405180910390a3505050565b600073ffffffffffffffffffffffffffffffffffffffff168273ffffffffffffffffffffffffffffffffffffffff16141561168b576040517f08c379a0000000000000000000000000000000000000000000000000000000008152600401611682906128cb565b60405180910390fd5b806004546116999190612a2f565b60048190555080600860008473ffffffffffffffffffffffffffffffffffffffff1673ffffffffffffffffffffffffffffffffffffffff168152602001908152602001600020546116ea9190612a2f565b600860008473ffffffffffffffffffffffffffffffffffffffff1673ffffffffffffffffffffffffffffffffffffffff168152602001908152602001600020819055508173ffffffffffffffffffffffffffffffffffffffff16600073ffffffffffffffffffffffffffffffffffffffff167fddf252ad1be2c89b69c2b068fc378daa952ba7f163c4a11628f55a4df523b3ef8360405161178b919061296d565b60405180910390a35050565b600073ffffffffffffffffffffffffffffffffffffffff168273ffffffffffffffffffffffffffffffffffffffff161415611807576040517f08c379a00000000000000000000000000000000000000000000000000000000081526004016117fe9061284b565b60405180910390fd5b80600860008473ffffffffffffffffffffffffffffffffffffffff1673ffffffffffffffffffffffffffffffffffffffff168152602001908152602001600020541015611889576040517f08c379a00000000000000000000000000000000000000000000000000000000081526004016118809061288b565b60405180910390fd5b80600860008473ffffffffffffffffffffffffffffffffffffffff1673ffffffffffffffffffffffffffffffffffffffff168152602001908152602001600020546118d49190612b10565b600860008473ffffffffffffffffffffffffffffffffffffffff1673ffffffffffffffffffffffffffffffffffffffff16815260200190815260200160002081905550806004546119259190612b10565b600481905550600073ffffffffffffffffffffffffffffffffffffffff168273ffffffffffffffffffffffffffffffffffffffff167fddf252ad1be2c89b69c2b068fc378daa952ba7f163c4a11628f55a4df523b3ef83604051611989919061296d565b60405180910390a35050565b600081116119d8576040517f08c379a00000000000000000000000000000000000000000000000000000000081526004016119cf906128ab565b60405180910390fd5b6000600360003373ffffffffffffffffffffffffffffffffffffffff1673ffffffffffffffffffffffffffffffffffffffff16815260200190815260200160002054905060004290506000821415611a3657611a3333612108565b91505b60028281548110611a70577f4e487b7100000000000000000000000000000000000000000000000000000000600052603260045260246000fd5b906000526020600020906002020160010160405180608001604052803373ffffffffffffffffffffffffffffffffffffffff1681526020018581526020018381526020016000815250908060018154018082558091505060019003906000526020600020906004020160009091909190915060008201518160000160006101000a81548173ffffffffffffffffffffffffffffffffffffffff021916908373ffffffffffffffffffffffffffffffffffffffff16021790555060208201518160010155604082015181600201556060820151816003015550503373ffffffffffffffffffffffffffffffffffffffff167fb4caaf29adda3eefee3ad552a8e85058589bf834c7466cae4ee58787f70589ed848484604051611b9393929190612988565b60405180910390a2505050565b60006001548260200151610e10846040015142611bbd9190612b10565b611bc79190612a85565b611bd19190612ab6565b611bdb9190612a85565b9050919050565b600080600360003373ffffffffffffffffffffffffffffffffffffffff1673ffffffffffffffffffffffffffffffffffffffff168152602001908152602001600020549050600060028281548110611c63577f4e487b7100000000000000000000000000000000000000000000000000000000600052603260045260246000fd5b90600052602060002090600202016001018481548110611cac577f4e487b7100000000000000000000000000000000000000000000000000000000600052603260045260246000fd5b90600052602060002090600402016040518060800160405290816000820160009054906101000a900473ffffffffffffffffffffffffffffffffffffffff1673ffffffffffffffffffffffffffffffffffffffff1673ffffffffffffffffffffffffffffffffffffffff168152602001600182015481526020016002820154815260200160038201548152505090508481602001511015611d82576040517f08c379a0000000000000000000000000000000000000000000000000000000008152600401611d799061292b565b60405180910390fd5b6000611d8d82611ba0565b9050858260200151611d9f9190612b10565b826020018181525050600082602001511415611e8d5760028381548110611def577f4e487b7100000000000000000000000000000000000000000000000000000000600052603260045260246000fd5b90600052602060002090600202016001018581548110611e38577f4e487b7100000000000000000000000000000000000000000000000000000000600052603260045260246000fd5b9060005260206000209060040201600080820160006101000a81549073ffffffffffffffffffffffffffffffffffffffff02191690556001820160009055600282016000905560038201600090555050611fc4565b816020015160028481548110611ecc577f4e487b7100000000000000000000000000000000000000000000000000000000600052603260045260246000fd5b90600052602060002090600202016001018681548110611f15577f4e487b7100000000000000000000000000000000000000000000000000000000600052603260045260246000fd5b9060005260206000209060040201600101819055504260028481548110611f65577f4e487b7100000000000000000000000000000000000000000000000000000000600052603260045260246000fd5b90600052602060002090600202016001018681548110611fae577f4e487b7100000000000000000000000000000000000000000000000000000000600052603260045260246000fd5b9060005260206000209060040201600201819055505b8086611fd09190612a2f565b935050505092915050565b600073ffffffffffffffffffffffffffffffffffffffff168173ffffffffffffffffffffffffffffffffffffffff16141561204b576040517f08c379a0000000000000000000000000000000000000000000000000000000008152600401612042906127eb565b60405180910390fd5b8073ffffffffffffffffffffffffffffffffffffffff1660008054906101000a900473ffffffffffffffffffffffffffffffffffffffff1673ffffffffffffffffffffffffffffffffffffffff167f8be0079c531659141344cd1fd0a4f28419497f9722a3daafe3b4186f6b6457e060405160405180910390a3806000806101000a81548173ffffffffffffffffffffffffffffffffffffffff021916908373ffffffffffffffffffffffffffffffffffffffff16021790555050565b60006002600181600181540180825580915050039060005260206000209050506000600160028054905061213c9190612b10565b90508260028281548110612179577f4e487b7100000000000000000000000000000000000000000000000000000000600052603260045260246000fd5b906000526020600020906002020160000160006101000a81548173ffffffffffffffffffffffffffffffffffffffff021916908373ffffffffffffffffffffffffffffffffffffffff16021790555080600360008573ffffffffffffffffffffffffffffffffffffffff1673ffffffffffffffffffffffffffffffffffffffff1681526020019081526020016000208190555080915050919050565b604051806040016040528060008152602001606081525090565b60008135905061223e816130a2565b92915050565b600081359050612253816130b9565b92915050565b60006020828403121561226b57600080fd5b60006122798482850161222f565b91505092915050565b6000806040838503121561229557600080fd5b60006122a38582860161222f565b92505060206122b48582860161222f565b9150509250929050565b6000806000606084860312156122d357600080fd5b60006122e18682870161222f565b93505060206122f28682870161222f565b925050604061230386828701612244565b9150509250925092565b6000806040838503121561232057600080fd5b600061232e8582860161222f565b925050602061233f85828601612244565b9150509250929050565b60006020828403121561235b57600080fd5b600061236984828501612244565b91505092915050565b6000806040838503121561238557600080fd5b600061239385828601612244565b92505060206123a485828601612244565b9150509250929050565b60006123ba8383612674565b60808301905092915050565b6123cf81612b44565b82525050565b6123de81612b44565b82525050565b60006123ef826129ea565b6123f98185612a0d565b9350612404836129da565b8060005b8381101561243557815161241c88826123ae565b975061242783612a00565b925050600181019050612408565b5085935050505092915050565b61244b81612b56565b82525050565b600061245c826129f5565b6124668185612a1e565b9350612476818560208601612b99565b61247f81612c8b565b840191505092915050565b6000612497602a83612a1e565b91506124a282612c9c565b604082019050919050565b60006124ba603283612a1e565b91506124c582612ceb565b604082019050919050565b60006124dd603083612a1e565b91506124e882612d3a565b604082019050919050565b6000612500602683612a1e565b915061250b82612d89565b604082019050919050565b6000612523602683612a1e565b915061252e82612dd8565b604082019050919050565b6000612546602283612a1e565b915061255182612e27565b604082019050919050565b6000612569602583612a1e565b915061257482612e76565b604082019050919050565b600061258c603283612a1e565b915061259782612ec5565b604082019050919050565b60006125af602e83612a1e565b91506125ba82612f14565b604082019050919050565b60006125d2601483612a1e565b91506125dd82612f63565b602082019050919050565b60006125f5602383612a1e565b915061260082612f8c565b604082019050919050565b6000612618602083612a1e565b915061262382612fdb565b602082019050919050565b600061263b602983612a1e565b915061264682613004565b604082019050919050565b600061265e603283612a1e565b915061266982613053565b604082019050919050565b60808201600082015161268a60008501826123c6565b50602082015161269d6020850182612706565b5060408201516126b06040850182612706565b5060608201516126c36060850182612706565b50505050565b60006040830160008301516126e16000860182612706565b50602083015184820360208601526126f982826123e4565b9150508091505092915050565b61270f81612b82565b82525050565b61271e81612b82565b82525050565b61272d81612b8c565b82525050565b600060208201905061274860008301846123d5565b92915050565b60006020820190506127636000830184612442565b92915050565b600060208201905081810360008301526127838184612451565b905092915050565b600060208201905081810360008301526127a48161248a565b9050919050565b600060208201905081810360008301526127c4816124ad565b9050919050565b600060208201905081810360008301526127e4816124d0565b9050919050565b60006020820190508181036000830152612804816124f3565b9050919050565b6000602082019050818103600083015261282481612516565b9050919050565b6000602082019050818103600083015261284481612539565b9050919050565b600060208201905081810360008301526128648161255c565b9050919050565b600060208201905081810360008301526128848161257f565b9050919050565b600060208201905081810360008301526128a4816125a2565b9050919050565b600060208201905081810360008301526128c4816125c5565b9050919050565b600060208201905081810360008301526128e4816125e8565b9050919050565b600060208201905081810360008301526129048161260b565b9050919050565b600060208201905081810360008301526129248161262e565b9050919050565b6000602082019050818103600083015261294481612651565b9050919050565b6000602082019050818103600083015261296581846126c9565b905092915050565b60006020820190506129826000830184612715565b92915050565b600060608201905061299d6000830186612715565b6129aa6020830185612715565b6129b76040830184612715565b949350505050565b60006020820190506129d46000830184612724565b92915050565b6000819050602082019050919050565b600081519050919050565b600081519050919050565b6000602082019050919050565b600082825260208201905092915050565b600082825260208201905092915050565b6000612a3a82612b82565b9150612a4583612b82565b9250827fffffffffffffffffffffffffffffffffffffffffffffffffffffffffffffffff03821115612a7a57612a79612bfe565b5b828201905092915050565b6000612a9082612b82565b9150612a9b83612b82565b925082612aab57612aaa612c2d565b5b828204905092915050565b6000612ac182612b82565b9150612acc83612b82565b9250817fffffffffffffffffffffffffffffffffffffffffffffffffffffffffffffffff0483118215151615612b0557612b04612bfe565b5b828202905092915050565b6000612b1b82612b82565b9150612b2683612b82565b925082821015612b3957612b38612bfe565b5b828203905092915050565b6000612b4f82612b62565b9050919050565b60008115159050919050565b600073ffffffffffffffffffffffffffffffffffffffff82169050919050565b6000819050919050565b600060ff82169050919050565b60005b83811015612bb7578082015181840152602081019050612b9c565b83811115612bc6576000848401525b50505050565b60006002820490506001821680612be457607f821691505b60208210811415612bf857612bf7612c5c565b5b50919050565b7f4e487b7100000000000000000000000000000000000000000000000000000000600052601160045260246000fd5b7f4e487b7100000000000000000000000000000000000000000000000000000000600052601260045260246000fd5b7f4e487b7100000000000000000000000000000000000000000000000000000000600052602260045260246000fd5b6000601f19601f8301169050919050565b7f4f776e61626c653a206f6e6c79206f776e65722063616e2063616c6c2074686960008201527f732066756e6374696f6e00000000000000000000000000000000000000000000602082015250565b7f44696c4253433a20596f752063616e6e6f74207370656e642074686174206d7560008201527f6368206f6e2074686973206163636f756e740000000000000000000000000000602082015250565b7f44696c4253433a20617070726f76652063616e6e6f7420626520646f6e65206660008201527f726f6d207a65726f206164647265737300000000000000000000000000000000602082015250565b7f4f776e61626c653a206e6577206f776e657220697320746865207a65726f206160008201527f6464726573730000000000000000000000000000000000000000000000000000602082015250565b7f44696c4253433a2043616e6e6f74207374616b65206d6f7265207468616e207960008201527f6f75206f776e0000000000000000000000000000000000000000000000000000602082015250565b7f44696c4253433a207472616e736665722066726f6d207a65726f20616464726560008201527f7373000000000000000000000000000000000000000000000000000000000000602082015250565b7f44696c4253433a2063616e6e6f74206275726e2066726f6d207a65726f20616460008201527f6472657373000000000000000000000000000000000000000000000000000000602082015250565b7f44696c4253433a2063616e74207472616e73666572206d6f7265207468616e2060008201527f796f7572206163636f756e7420686f6c64730000000000000000000000000000602082015250565b7f44696c4253433a2043616e6e6f74206275726e206d6f7265207468616e20746860008201527f65206163636f756e74206f776e73000000000000000000000000000000000000602082015250565b7f43616e6e6f74207374616b65206e6f7468696e67000000000000000000000000600082015250565b7f44696c4253433a2063616e6e6f74206d696e7420746f207a65726f206164647260008201527f6573730000000000000000000000000000000000000000000000000000000000602082015250565b7f44696c4253433a207472616e7366657220746f207a65726f2061646472657373600082015250565b7f44696c4253433a20617070726f76652063616e6e6f7420626520746f207a657260008201527f6f20616464726573730000000000000000000000000000000000000000000000602082015250565b7f5374616b696e673a2043616e6e6f74207769746864726177206d6f726520746860008201527f616e20796f752068617665207374616b65640000000000000000000000000000602082015250565b6130ab81612b44565b81146130b657600080fd5b50565b6130c281612b82565b81146130cd57600080fd5b5056fea264697066735822122068d7e82ef29fa4ebb4e1868d6736231ae239e529cfe384859059c9d4813b634e64736f6c63430008040033",
  "immutableReferences": {},
  "source": "// SPDX-License-Identifier: MIT\npragma solidity ^0.8.4;\n\nimport \"./Ownable.sol\";\nimport \"./Stakable.sol\";\n\ncontract DilBSC is Ownable, Stakable {\n    uint256 private _totalSupply;\n    uint8 private _decimals;\n    string private _symbol;\n    string private _name;\n\n    mapping(address => uint256) private _balances;\n    mapping(address => mapping(address => uint256)) private _allowances;\n\n    event Transfer(address indexed from, address indexed to, uint256 value);\n    event Approval(\n        address indexed owner,\n        address indexed spender,\n        uint256 value\n    );\n\n    constructor(\n        string memory token_name,\n        string memory short_symbol,\n        uint8 token_decimals,\n        uint256 token_totalSupply\n    ) {\n        _name = token_name;\n        _symbol = short_symbol;\n        _decimals = token_decimals;\n        _totalSupply = token_totalSupply;\n\n        _balances[msg.sender] = _totalSupply;\n\n        emit Transfer(address(0), msg.sender, _totalSupply);\n    }\n\n    function decimals() external view returns (uint8) {\n        return _decimals;\n    }\n\n    function symbol() external view returns (string memory) {\n        return _symbol;\n    }\n\n    function name() external view returns (string memory) {\n        return _name;\n    }\n\n    function totalSupply() external view returns (uint256) {\n        return _totalSupply;\n    }\n\n    function balanceOf(address account) external view returns (uint256) {\n        return _balances[account];\n    }\n\n    function mint(address account, uint256 amount)\n        public\n        onlyOwner\n        returns (bool)\n    {\n        _mint(account, amount);\n        return true;\n    }\n\n    function _mint(address account, uint256 amount) internal {\n        require(account != address(0), \"DilBSC: cannot mint to zero address\");\n\n        _totalSupply = _totalSupply + (amount);\n        _balances[account] = _balances[account] + amount;\n        emit Transfer(address(0), account, amount);\n    }\n\n    function burn(address account, uint256 amount)\n        public\n        onlyOwner\n        returns (bool)\n    {\n        _burn(account, amount);\n        return true;\n    }\n\n    function _burn(address account, uint256 amount) internal {\n        require(account != address(0), \"DilBSC: cannot burn from zero address\");\n        require(\n            _balances[account] >= amount,\n            \"DilBSC: Cannot burn more than the account owns\"\n        );\n\n        _balances[account] = _balances[account] - amount;\n        _totalSupply = _totalSupply - amount;\n        emit Transfer(account, address(0), amount);\n    }\n\n    function transfer(address recipient, uint256 amount)\n        external\n        returns (bool)\n    {\n        _transfer(msg.sender, recipient, amount);\n        return true;\n    }\n\n    function _transfer(\n        address sender,\n        address recipient,\n        uint256 amount\n    ) internal {\n        require(sender != address(0), \"DilBSC: transfer from zero address\");\n        require(recipient != address(0), \"DilBSC: transfer to zero address\");\n        require(\n            _balances[sender] >= amount,\n            \"DilBSC: cant transfer more than your account holds\"\n        );\n\n        _balances[sender] = _balances[sender] - amount;\n        _balances[recipient] = _balances[recipient] + amount;\n\n        emit Transfer(sender, recipient, amount);\n    }\n\n    function getOwner() external view returns (address) {\n        return owner();\n    }\n\n    function allowance(address owner, address spender)\n        external\n        view\n        returns (uint256)\n    {\n        return _allowances[owner][spender];\n    }\n\n    function approve(address spender, uint256 amount) external returns (bool) {\n        _approve(msg.sender, spender, amount);\n        return true;\n    }\n\n    function _approve(\n        address owner,\n        address spender,\n        uint256 amount\n    ) internal {\n        require(\n            owner != address(0),\n            \"DilBSC: approve cannot be done from zero address\"\n        );\n        require(\n            spender != address(0),\n            \"DilBSC: approve cannot be to zero address\"\n        );\n\n        _allowances[owner][spender] = amount;\n\n        emit Approval(owner, spender, amount);\n    }\n\n    function transferFrom(\n        address spender,\n        address recipient,\n        uint256 amount\n    ) external returns (bool) {\n        require(\n            _allowances[spender][msg.sender] >= amount,\n            \"DilBSC: You cannot spend that much on this account\"\n        );\n        _transfer(spender, recipient, amount);\n        _approve(\n            spender,\n            msg.sender,\n            _allowances[spender][msg.sender] - amount\n        );\n        return true;\n    }\n\n    function increaseAllowance(address spender, uint256 amount)\n        public\n        returns (bool)\n    {\n        _approve(\n            msg.sender,\n            spender,\n            _allowances[msg.sender][spender] + amount\n        );\n        return true;\n    }\n\n    function decreaseAllowance(address spender, uint256 amount)\n        public\n        returns (bool)\n    {\n        _approve(\n            msg.sender,\n            spender,\n            _allowances[msg.sender][spender] - amount\n        );\n        return true;\n    }\n\n    function stake(uint256 _amount) public {\n        require(\n            _amount < _balances[msg.sender],\n            \"DilBSC: Cannot stake more than you own\"\n        );\n\n        _stake(_amount);\n        _burn(msg.sender, _amount);\n    }\n\n    function withdrawStake(uint256 amount, uint256 stake_index) public {\n        uint256 amount_to_mint = _withdrawStake(amount, stake_index);\n        _mint(msg.sender, amount_to_mint);\n    }\n}\n",
  "sourcePath": "/home/rjukovskii/projects/php/metamask-test/contracts/DilBSC.sol",
  "compiler": {
    "name": "solc",
    "version": "0.8.4+commit.c7e474f2.Emscripten.clang"
  },
  "schemaVersion": "3.4.6",
  "updatedAt": "2022-04-10T00:01:13.333Z",
  "devdoc": {
    "kind": "dev",
    "methods": {},
    "version": 1
  },
  "userdoc": {
    "kind": "user",
    "methods": {},
    "version": 1
  }
}